:020000040800F2
:10000000000002201934000865310008673100083B
:10001000693100086B3100086D31000800000000F4
:1000200000000000000000000000000091530008E4
:100030006F3100080000000031540008955400089A
:10004000693400086934000869340008693400081C
:10005000693400086934000869340008693400080C
:1000600069340008693400086934000869340008FC
:1000700071310008693400086934000869340008E7
:1000800069340008693400086934000881310008C7
:1000900091310008693400086934000869340008A7
:1000A000A131000869340008693400086934000887
:1000B00069340008693400086934000869340008AC
:1000C000693400086934000869340008693400089C
:1000D000693400086934000869340008B131000847
:1000E000693400086934000869340008693400087C
:1000F000693400086934000869340008693400086C
:10010000693400086934000869340008693400085B
:10011000693400086934000869340008693400084B
:10012000693400086934000869340008693400083B
:10013000693400086934000869340008C5310008D2
:10014000D5310008693400086934000869340008B2
:10015000693400086934000869340008693400080B
:1001600069340008693400086934000869340008FB
:100170006934000869340008693400080000000090
:0801800069340008693400082D
:1001A00010B5054C237833B9044B13B10448AFF3B1
:1001B00000800123237010BD5808002000000000BB
:1001C000CC6C000808B5034B1BB103490348AFF3DF
:1001D000008008BD000000005C080020CC6C000816
:1001E00081F0004102E000BF83F0004330B54FEAE8
:1001F00041044FEA430594EA050F08BF90EA020F55
:100200001FBF54EA000C55EA020C7FEA645C7FEAE7
:10021000655C00F0E2804FEA5454D4EB5555B8BF0A
:100220006D420CDD2C4480EA020281EA030382EA7B
:10023000000083EA010180EA020281EA0303362D0D
:1002400088BF30BD11F0004F4FEA01314FF4801CE0
:100250004CEA113102D0404261EB410113F0004FF2
:100260004FEA03334CEA133302D0524263EB4303A9
:1002700094EA050F00F0A780A4F10104D5F1200E47
:100280000DDB02FA0EFC22FA05F2801841F10001A2
:1002900003FA0EF2801843FA05F359410EE0A5F176
:1002A00020050EF1200E012A03FA0EFC28BF4CF0A7
:1002B000020C43FA05F3C01851EBE37101F000455D
:1002C00007D54FF0000EDCF1000C7EEB00006EEB6A
:1002D0000101B1F5801F1BD3B1F5001F0CD34908F4
:1002E0005FEA30004FEA3C0C04F101044FEA44524B
:1002F00012F5800F80F09A80BCF1004F08BF5FEAD2
:10030000500C50F1000041EB045141EA050130BDB1
:100310005FEA4C0C404141EB010111F4801FA4F154
:100320000104E9D191F0000F04BF01460020B1FAA9
:1003300081F308BF2033A3F10B03B3F120020CDAE1
:100340000C3208DD02F1140CC2F10C0201FA0CF0BF
:1003500021FA02F10CE002F11402D8BFC2F1200C24
:1003600001FA02F120FA0CFCDCBF41EA0C019040DA
:10037000E41AA2BF01EB0451294330BD6FEA040423
:100380001F3C1CDA0C340EDC04F11404C4F120020E
:1003900020FA04F001FA02F340EA030021FA04F320
:1003A00045EA030130BDC4F10C04C4F1200220FA77
:1003B00002F001FA04F340EA0300294630BD21FAB5
:1003C00004F0294630BD94F0000F83F4801306BF7B
:1003D00081F480110134013D4EE77FEA645C18BF6F
:1003E0007FEA655C29D094EA050F08BF90EA020F06
:1003F00005D054EA000C04BF1946104630BD91EAFE
:10040000030F1EBF0021002030BD5FEA545C05D100
:100410004000494128BF41F0004130BD14F580043F
:100420003CBF01F5801130BD01F0004545F0FE41B3
:1004300041F470014FF0000030BD7FEA645C1ABFE8
:10044000194610467FEA655C1CBF0B46024650EA1F
:10045000013406BF52EA033591EA030F41F400214B
:1004600030BD00BF90F0000F04BF0021704730B5D1
:100470004FF4806404F132044FF000054FF00001A6
:1004800050E700BF90F0000F04BF0021704730B567
:100490004FF4806404F1320410F0004548BF40423C
:1004A0004FF000013EE700BF42004FEAE2014FEA91
:1004B00031014FEA02701FBF12F07F4393F07F4F6C
:1004C00081F06051704732F07F4208BF704793F06F
:1004D0007F4F04BF41F40021704730B54FF4607482
:1004E00001F0004521F000411CE700BF50EA010285
:1004F00008BF704730B54FF000050AE050EA01022E
:1005000008BF704730B511F0004502D5404261EB9D
:1005100041014FF4806404F132045FEA915C3FF4DE
:10052000D8AE4FF003025FEADC0C18BF03325FEA7B
:10053000DC0C18BF033202EBDC02C2F1200300FA2C
:1005400003FC20FA02F001FA03FE40EA0E0021FA51
:1005500002F11444BDE600BF70B54FF0FF0C4CF43F
:10056000E06C1CEA11541DBF1CEA135594EA0C0FF1
:1005700095EA0C0F00F0DEF82C4481EA030621EA2C
:100580004C5123EA4C5350EA013518BF52EA033567
:1005900041F4801143F4801338D0A0FB02CE4FF019
:1005A0000005E1FB02E506F00042E0FB03E54FF049
:1005B0000006E1FB03569CF0000F18BF4EF0010E41
:1005C000A4F1FF04B6F5007F64F5407404D25FEA3D
:1005D0004E0E6D4146EB060642EAC62141EA5551F0
:1005E0004FEAC52040EA5E504FEACE2EB4F1FD0C32
:1005F00088BFBCF5E06F1ED8BEF1004F08BF5FEAB0
:10060000500E50F1000041EB045170BD06F0004661
:1006100046EA010140EA020081EA0301B4EB5C040E
:10062000C2BFD4EB0C0541EA045170BD41F4801106
:100630004FF0000E013C00F3AB8014F1360FDEBF2B
:10064000002001F0004170BDC4F10004203C35DA07
:100650000C341BDC04F11404C4F1200500FA05F38A
:1006600020FA04F001FA05F240EA020001F000422B
:1006700021F0004110EBD37021FA04F642EB0601A1
:100680005EEA430E08BF20EAD37070BDC4F10C04CB
:10069000C4F1200500FA04F320FA05F001FA04F28F
:1006A00040EA020001F0004110EBD37041F100017B
:1006B0005EEA430E08BF20EAD37070BDC4F1200586
:1006C00000FA05F24EEA020E20FA04F301FA05F2EE
:1006D00043EA020321FA04F001F0004121FA04F296
:1006E00020EA020000EBD3705EEA430E08BF20EA66
:1006F000D37070BD94F0000F0FD101F000464000A0
:1007000041EB010111F4801F08BF013CF7D041EA21
:10071000060195F0000F18BF704703F00046520025
:1007200043EB030313F4801F08BF013DF7D043EAF6
:100730000603704794EA0C0F0CEA135518BF95EAAC
:100740000C0F0CD050EA410618BF52EA4306D1D133
:1007500081EA030101F000414FF0000070BD50EA52
:10076000410606BF1046194652EA430619D094EADC
:100770000C0F02D150EA013613D195EA0C0F05D1C6
:1007800052EA03361CBF104619460AD181EA03011A
:1007900001F0004141F0FE4141F470014FF00000D2
:1007A00070BD41F0FE4141F4780170BD70B54FF06D
:1007B000FF0C4CF4E06C1CEA11541DBF1CEA1355ED
:1007C00094EA0C0F95EA0C0F00F0A7F8A4EB0504CF
:1007D00081EA030E52EA03354FEA013100F08880C6
:1007E0004FEA03334FF0805545EA131343EA12638F
:1007F0004FEA022245EA111545EA10654FEA002644
:100800000EF000419D4208BF964244F1FD0404F5FC
:10081000407402D25B084FEA3202B61A65EB030558
:100820005B084FEA32024FF480104FF4002CB6EB15
:10083000020E75EB030E22BFB61A754640EA0C0095
:100840005B084FEA3202B6EB020E75EB030E22BFD5
:10085000B61A754640EA5C005B084FEA3202B6EB16
:10086000020E75EB030E22BFB61A754640EA9C00D5
:100870005B084FEA3202B6EB020E75EB030E22BFA5
:10088000B61A754640EADC0055EA060E18D04FEA63
:10089000051545EA16754FEA06164FEAC30343EA03
:1008A00052734FEAC2025FEA1C1CC0D111F4801FD0
:1008B0000BD141EA00014FF000004FF0004CB6E7C9
:1008C00011F4801F04BF01430020B4F1FD0C88BF68
:1008D000BCF5E06F3FF6AFAEB5EB030C04BFB6EB73
:1008E000020C5FEA500C50F1000041EB045170BD66
:1008F0000EF0004E4EEA113114EB5C04C2BFD4EB93
:100900000C0541EA045170BD41F480114FF0000E16
:10091000013C90E645EA060E8DE60CEA135594EA92
:100920000C0F08BF95EA0C0F3FF43BAF94EA0C0F95
:100930000AD150EA01347FF434AF95EA0C0F7FF40A
:1009400025AF104619462CE795EA0C0F06D152EA5E
:1009500003353FF4FDAE1046194622E750EA410642
:1009600018BF52EA43067FF4C5AE50EA41047FF453
:100970000DAF52EA43057FF4EBAE12E74FF0FF3CB8
:1009800006E000BF4FF0010C02E000BF4FF0010C89
:100990004DF804CD4FEA410C7FEA6C5C4FEA430C02
:1009A00018BF7FEA6C5C1BD001B050EA410C0CBF51
:1009B00052EA430C91EA030F02BF90EA020F0020B3
:1009C000704710F1000F91EA030F58BF994208BF1A
:1009D00090422CBFD8176FEAE37040F001007047D7
:1009E0004FEA410C7FEA6C5C02D150EA013C07D12E
:1009F0004FEA430C7FEA6C5CD6D152EA033CD3D079
:100A00005DF8040B704700BF8446104662468C4672
:100A10001946634600E000BF01B5FFF7B7FF0028A5
:100A200048BF10F1000F01BD4DF808EDFFF7F4FFCE
:100A30000CBF012000205DF808FB00BF4DF808ED59
:100A4000FFF7EAFF34BF012000205DF808FB00BF7C
:100A50004DF808EDFFF7E0FF94BF012000205DF89E
:100A600008FB00BF4DF808EDFFF7CEFF94BF012053
:100A700000205DF808FB00BF4DF808EDFFF7C4FF4C
:100A800034BF012000205DF808FB00BF4FEA41029F
:100A900012F5001215D211D56FF47873B3EB6252D0
:100AA00012D94FEAC12343F0004343EA505311F0F7
:100AB000004F23FA02F018BF404270474FF0000089
:100AC000704750EA013005D111F0004008BF6FF0C7
:100AD000004070474FF00000704700BF4FEA4102EE
:100AE000B2F1E04324BFB3F5001CDCF1FE5C0DD98C
:100AF00001F0004C4FEAC0024CEA5070B2F1004FD6
:100B000040EB830008BF20F00100704711F0804FD8
:100B100021D113F13872BCBF01F00040704741F49D
:100B200080114FEA5252C2F11802C2F1200C10FAA1
:100B30000CF320FA02F018BF40F001004FEAC12385
:100B40004FEAD32303FA0CFC40EA0C0023FA02F329
:100B50004FEA4303CCE77FEA625307D150EA0133FF
:100B60001EBF4FF0FE4040F44000704701F00040CF
:100B700040F0FE4040F40000704700BF53B94AB94E
:100B8000002908BF00281CBF4FF0FF314FF0FF3095
:100B900001F0F8B8ADF1080C6DE904CE00F006F8EC
:100BA000DDF804E0DDE9022304B070472DE9F047E9
:100BB000089E04468846002B4BD18A42154667D9C9
:100BC000B2FA82F24AB1C2F1200701FA02F320FA26
:100BD00007F7954047EA030894404FEA154E230C67
:100BE000B8FBFEF71FFA85FC0EFB178843EA0843A3
:100BF00007FB0CF1994209D9EB1807F1FF3080F09F
:100C00001B81994240F21881023F2B445B1AA4B227
:100C1000B3FBFEF00EFB103344EA034400FB0CFC74
:100C2000A44509D92C1900F1FF3380F00781A445B0
:100C300040F2048102382C4440EA0740A4EB0C0443
:100C400000271EB1D4400023C6E900433946BDE861
:100C5000F0878B4209D9002E00F0EB800027C6E90F
:100C6000000138463946BDE8F087B3FA83F7002F14
:100C700047D18B4202D3824200F2FA80841A61EBA0
:100C8000030301209846002EE0D0C6E90048DDE7C6
:100C900002B9FFDEB2FA82F2002A40F08F80491BCF
:100CA0004FEA154E1FFA85F80127B1FBFEFC230C15
:100CB0000EFB1C1143EA014308FB0CF1994207D9D2
:100CC000EB180CF1FF3002D2994200F2CD8084463D
:100CD000591AA3B2B1FBFEF00EFB101443EA044410
:100CE00008FB00F8A04507D92C1900F1FF3302D208
:100CF000A04500F2B6801846A4EB080440EA0C4078
:100D00009FE7C7F1200CBB4022FA0CFE4EEA030E0F
:100D100001FA07F420FA0CF521FA0CF34FEA1E4809
:100D20002543B3FBF8F92C0C08FB19331FFA8EFA94
:100D300044EA034309FB0AF49C4202FA07F200FA70
:100D400007F10BD91EEB030309F1FF3080F0878018
:100D50009C4240F28480A9F1020973441B1BADB28E
:100D6000B3FBF8F008FB103345EA034400FB0AFA32
:100D7000A24508D91EEB040400F1FF336BD2A24553
:100D800069D90238744440EA0940A0FB0289A4EB07
:100D90000A044C45C2464B4654D351D0002E69D06C
:100DA000B1EB0A0564EB030404FA0CFCFD40FC40C3
:100DB0004CEA0505C6E90054002747E7C2F12003C5
:100DC00020FA03F7954001FA02F021FA03F34FEA03
:100DD000154E3843010CB3FBFEF71FFA85F80EFBE6
:100DE000173341EA034107FB08F38B4204FA02F48C
:100DF00007D9691807F1FF3C2FD28B422DD9023F4A
:100E00002944CB1A81B2B3FBFEF00EFB103341EA4A
:100E1000034100FB08F38B4207D9691800F1FF3C3E
:100E200017D28B4215D902382944C91A40EA07471C
:100E30003BE73746304609E70746E7E61846FBE654
:100E40004145ABD2B8EB020A69EB0E0201381346FA
:100E5000A4E76046E9E7184695E76746D1E781468B
:100E60007CE702382C4447E7ACF1020C2B442FE717
:100E7000384608E73746E9E603685A004CBF43F0B6
:100E8000004323F000431844704700BF61B32DE9CD
:100E9000F84F01F1FF3A90460646D146002707EB8E
:100EA000090404EBD4746410E50071190846FFF7D7
:100EB000E3FFA245834605F10800304409D0FFF75F
:100EC000DBFFC34500F1FF3005D8404509D2671C60
:100ED000E5E7C34505D9A74202D004F1FF39DEE7B3
:100EE00000210846BDE8F88F08467047012807D062
:100EF000022807D0044B00280CBF1846002070477A
:100F00000248704702487047D9150008DD150008EF
:100F1000E115000830B5254B83B004468D1E4BB358
:100F200001A92846AFF30080F0B101992A46FFF7E6
:100F3000ADFF0146C0B1FFF79FFF4B68A064012BD6
:100F40002ED0002B01F1040026DBFFF795FF0023D4
:100F5000C4E913030368002B12DBFFF78DFF0023A6
:100F60002061184603B030BD0023236109231846D1
:100F700003B030BD0E490F48091AC9100191D5E7D9
:100F8000C3F30360FFF7B2FF002814BF0023092357
:100F90002061184603B030BD0123C4E91303D9E72B
:100FA000002323610523184603B030BD0000000074
:100FB0002C700008F46E00080368DA0710B50446C8
:100FC00006D49B0700F1480009D500F05FFC2368B8
:100FD000590709D51A070ED5DB0613D510BD00F049
:100FE0004DFC23685907F5D404F1D00000F056FCFD
:100FF00023681A07F0D404F5A87000F057FC2368A2
:10100000DB06EBD404F5E870BDE8104000F092BCBC
:10101000036803B103441846704700BF09207047B6
:10102000704700BF70B504460D4608E02B6C636145
:101030002A462369214601209847082808D1296CAF
:101040002046FFF767FF06460028EFD005F0D4F8EA
:101050000728FBD13046296CFFF7E2FF281D00F07E
:1010600001FC00BF2DE9F0470C1D054617460FCCCB
:10107000ADF5727D03AE0FC60FCC0FC60FCC0FC6F9
:1010800094E80F0002ACD5F80C80D5F8189086E8EB
:101090000F000023236021E0236C6B614FF4F0729A
:1010A00021467AA800F070FE2B697AAA29463046BC
:1010B0009847889BCDE900498246636431462B46B8
:1010C0002A460120C0470746F8B94FF4F0727AA9C2
:1010D000204600F059FEBAF1080F1CD1216C2846B9
:1010E000FFF718FF002F08BF0926074618BF0A267A
:1010F0000028D1D0A36B46F01001CDE900492A4663
:10110000636401202B46C04700B1092738460DF51E
:10111000727DBDE8F087BAF1070FF6D13846216C31
:10112000FFF77EFF03A800F09DFB00BF406C7047F7
:10113000F0B5CB6B0B640D1D0F4606460FCDF9B015
:1011400001AC0FC40FCD0FC40FCD0FC495E80F0035
:101150004FF0FF3584E80F00009506E033696A46DA
:10116000314698470828044608D110993046FFF7C1
:10117000D1FE0028F2D0092079B0F0BD6846FFF713
:101180001BFF062CF7D139463046FFF74BFF00BF57
:1011900030B4DD6BC160826119461D64002230BC31
:1011A00060E700BF70B5C66843690B64BEB90369E8
:1011B0000A4604460D46014602209847072807D0F4
:1011C000082803D129462046FFF72CFF05F014F824
:1011D0003046296CFFF724FF281D00F043FB012255
:1011E000FFF740FF05F008F8C2681AB1CA6B0A643D
:1011F000002237E79CE700BF704700BF836813B148
:101200000146012018477047042907D8DFE801F09C
:101210000308060808000BB90F2A03D902207047FB
:101220000120704700EB820218465368009A136051
:10123000704700BF10B584B0002303AC0A46009489
:101240001946FFF7E1FF039804B010BD042907D841
:10125000DFE801F00308060808000BB90F2A03D9DC
:10126000022070470120704700EB8200009A12684C
:1012700042601846704700BF10B584B004AC00232C
:1012800044F8042D0A4600941946FFF7DFFF04B026
:1012900010BD00BFF0B5D36B1364151D07460E4695
:1012A0000FCDADF50F7D17AC0FC40FCD0FC40FCD13
:1012B0000FC495E80F004FF0FF3584E80F00169536
:1012C00010E016A8FFF7D8FF314616A8B84716AAAF
:1012D000694678B9049B08209847052804460AD037
:1012E000092807D026996846FFF714FE6A460C21A4
:1012F0000028E6D0092416A8FFF75EFE20460DF56B
:101300000F7DF0BD2DE9F04F0D46C96C89B00C1D65
:10131000164600F0030B0A6806941F46002B68D09F
:10132000130CD9B212048DF81D30022304EB810492
:1013300005928DF81C302B6DBBF1020F08BFAC6B12
:1013400013F0010346D1019300F008030093D4F891
:101350000090B9F1000F00F0F380022F45D0B4F8EF
:101360000090B4F802800434AB6C28F0010A0F211D
:1013700030469A44FFF75EFF824534D829F00103D6
:101380005344834294BF002001204FEA480808F0EC
:10139000020809F0010948EA0908B8F1010F3AD03A
:1013A00031D3B8F1020F1AD1236823F0004ABBF100
:1013B000000F66D130B1009A002A6CD0BAF1000F4C
:1013C00000F09080002B00DA04340AF1010304EBF2
:1013D0008304BCE7304605A900F046FB78B109203C
:1013E00009B0BDE8F08F0020CFE7D4F804800834BE
:1013F000BAE7120203230592ADF81C309BE70820E0
:1014000009B0BDE8F08FBBF1000F02D0002840F01A
:10141000B48004349BE7BBF1000F18D1A8B1D4E924
:101420000023991C4FEAD272D9D005F1580101333B
:10143000049100F0B580201DFFF7EAFD04AB0146E2
:101440002846AFF30080002867D108347FE70D21DC
:101450003046D5F82080FFF7EDFE8045F5D1AB6A28
:101460009C42F2D12046FFF707FD0F21024630468D
:10147000FFF702FF30462A460021FFF7FDFE072056
:10148000AEE70D213046D5F82080FFF7D3FE80452A
:1014900032D0236896E7BAF1000F23D005F1580344
:1014A00004F10408CDF808B0DDF800900397A346D6
:1014B0001C4602E05745B94640D040460494FFF729
:1014C000A7FD04AB014600222846AFF3008009F1D6
:1014D000010708F104080028ECD0D1455C46DDE99D
:1014E00002B7D6D130460D21FFF7A4FE049B286237
:1014F000C5E90934062073E7AB6A9C42C9D10422CE
:101500004FF00008A318C5E90AA8C5E90C23236811
:1015100043454DDB0123019357E780460D213046BB
:10152000FFF788FEB8F1020F28623ED12B46049ADD
:1015300043F82C2F6B62AC62062051E75C46D1E782
:1015400005A9304600F090FA00287FF448AF019BCF
:10155000002B3FF454AF0F213046FFF76BFE0E21F6
:1015600002463046FFF788FE30461A4A0F21FFF741
:1015700083FE072009B0BDE8F08F2046FFF77CFC12
:1015800004340746AC632846AFF3008000283FF4DC
:1015900026AF30463A460F21FFF76EFE07201FE7C1
:1015A00030460D21FFF746FE2862049B6B62C2E7BE
:1015B0000AF1010004EB8000FFF75EFC0F210246F8
:1015C0003046FFF759FE30462A464146FFF754FEA3
:1015D000072005E700000000002393E6012391E6C1
:1015E00002238FE62DE9F0410546C4B0042906D850
:1015F000DFE801F04D2B05030900032B5FD002202B
:1016000044B0BDE8F081002BF9D1102AF7D82B683F
:10161000DC0600F1F48022AC2046019200F094F93F
:10162000A86B019A0023012606FA03F1114203D0A8
:10163000016844F8231004300133042BF4D1A8636B
:10164000204600F077F90020DAE7012B4FEA124636
:1016500097B252D0052BD2D106EB0708B8F1200F74
:10166000CDD80F2E40F29980B846002F40F0DB8095
:10167000AA6BAA630F2E40F2BE80B8F1000F02D011
:1016800002A800F00BF9002044B0BDE8F081002B67
:10169000B5D1AC6B97B2281D012606FA03F1394289
:1016A00003F1010302D0216801600434102B00F122
:1016B0000400F2D112F40050E5D1AC63A0E7160C9F
:1016C00097B2F319102B9AD82B681A075DD422AC65
:1016D000204600F00DF904EBC601AB6B3FB103EB04
:1016E000C702186841F8040B04339342F9D120462D
:1016F000AB6300F0DBF8002082E7F219102A3FF616
:101700007EAF0F2E3FF67BAF2A68D10708D528465B
:1017100022F0030240F8482B019300F0B3F8019B3C
:10172000019322AC204600F0ADF8A96B019B002F7D
:1017300000F095807F0004EBC6044FF00008043CE5
:1017400001EB870251F8040B44F8040F9142F9D1E0
:10175000B8F1000F0FD002AC102E314638BF102167
:1017600004EBC101843902EBC80452F8040B41F8C0
:10177000040F9442F9D1012B7FF47BAF22AC0432E9
:10178000AA63204600F07AF87DE723F008032B6077
:1017900005F5A87000F0ACF899E7B8F1100F2A68C9
:1017A00043D9D007A8F110080BD5284622F0010232
:1017B00042F0020240F8482B019300F06BF82A68CF
:1017C000019B510725D40F2E04D822A8019300F0C5
:1017D00061F8019B019302AC204600F063F8C6F16A
:1017E00010010029AA6B019BB6DD22AC4F0004EB6F
:1017F000C6041146A3E722A800F048F83DE723F00D
:1018000010032B6005F5E870019200F09DF8019A35
:1018100001E7284622F0040240F8D02B019300F0A3
:1018200041F8019BCFE72A68CBE7D0070AD52846C5
:1018300022F0010242F0020240F8482B019300F02E
:1018400029F8019B019322AC204600F023F8B8460A
:10185000A96B019B002F7FF46DAF0A4609E70A468A
:101860008DE700BF00F1340191E838009C46A646A0
:101870004CF8045D90E8FF0FE54600BD90EC210BAD
:10188000704700BF80EC210B704700BF90EC200B2D
:10189000704700BF80EC200B704700BFD0EC200BDE
:1018A000704700BFC0EC200B704700BFF0EC020196
:1018B000F0EC0211F0EC0221F0EC0231F0EC02410C
:1018C000F0EC0251F0EC0261F0EC0271F0EC0281FC
:1018D000F0EC0291F0EC02A1F0EC02B1F0EC02C1EC
:1018E000F0EC02D1F0EC02E1F0EC02F1704700BF45
:1018F000E0EC0201E0EC0211E0EC0221E0EC02314C
:10190000E0EC0241E0EC0251E0EC0261E0EC02713B
:10191000E0EC0281E0EC0291E0EC02A1E0EC02B12B
:10192000E0EC02C1E0EC02D1E0EC02E1E0EC02F11B
:10193000704700BFB0FC0181B0FC0191B0FC01A177
:10194000B0FC01B1704700BFA0FC0181A0FC019177
:10195000A0FC01A1A0FC01B1704700BFEC4600B59E
:101960002DE900502DE9FF1F4FF000032DE90C0079
:1019700001A9FFF7DDFBDDF840E012B0704700BFC2
:10198000EC4600B52DE900502DE9FF1F4FF0000394
:101990002DE90C0001A9FFF705FCDDF840E012B0CD
:1019A000704700BFEC4600B52DE900502DE9FF1F40
:1019B0004FF000032DE90C0001A9FFF715FCDDF83D
:1019C00040E012B0704700BFEC4600B52DE9005072
:1019D0002DE9FF1F4FF000032DE90C0001ABFFF7CD
:1019E000D7FBDDF840E012B0704700BFEC4600B511
:1019F0002DE900502DE9FF1F4FF000032DE90C00E9
:101A000001AAFFF747FCDDF840E012B0704700BFC5
:101A1000027A82B9437AABB14268013B10B4437297
:101A200013680321141D01721A02446002605DF8FC
:101A3000044B180E70470368013A02721A020260E2
:101A4000180E7047B020704700B585B003AA002378
:101A5000009219460C22FFF7D7FB039805B05DF8FA
:101A600004FB00BFF0E700BF2DE9F043054685B059
:101A70000E464FF000083046FFF7CAFFB028044674
:101A800000F0B180070620D500F0F003802B65D070
:101A9000902B36D0A02B78D0B02B47D0C02B00F0A5
:101AA0008A8000F0F803D02B0BD100F0070201323E
:101AB00042F40022052301212846FFF793FD002868
:101AC000D9D0092005B0BDE8F0830DF10C09002341
:101AD00019468700CDF800900D222846FFF794FBA9
:101AE000FFB2039BCDF80090043760064CBFDF1BAC
:101AF000FF18002319460D2228460397FFF7A6FB7F
:101B0000B9E700F00D030D2BDBD003AF002300F08D
:101B10000F02194600972846FFF776FB002300972F
:101B200019460D222846FFF791FBA4E7B1285FD0A4
:101B3000B22800F0CC80B3287ED000F0FC03B42B98
:101B4000BFD000F007020132012342F400221946FF
:101B50002846FFF747FD00288DD0B2E73046FFF753
:101B600057FF24020443B4F5004FAAD024010023F8
:101B7000A2B219462846FFF735FD0028A1D114F47A
:101B8000004F18BF4FF0010875E7C24302F007038A
:101B90004FF47F621A41010702F47F624FF00003A5
:101BA00048BF42F4804219462846FFF71BFD002833
:101BB0003FF461AF85E7C62851D0C7285AD000F05E
:101BC000F803C02B69D0C82875D0C9287FF479AF35
:101BD0003046FFF71DFF020300F00F0002F47022F1
:101BE0000130024366E7B8F1000F14D0002069E726
:101BF0003046FFF70DFF00283FF463AF10F0F0030D
:101C00007FF45FAF024619462846FFF7EBFC002839
:101C10003FF431AF55E703AC43460E2241460094F2
:101C20002846FFF7F1FA0094284643460F22414622
:101C3000FFF70CFB404645E73046FFF7E9FE01039E
:101C400000F00F0001F47021421C01230A432846D2
:101C50001946FFF7C7FC00283FF40DAF31E73046C7
:101C6000FFF7D6FE010300F00F0001F47021421CC3
:101C70000323EBE73046FFF7CBFE024600283FF494
:101C800020AF10F0F0037FF41CAF04212846FFF7CB
:101C9000A9FC00283FF4EFAE13E700F00F02013279
:101CA000032342F4202219462846FFF79BFC002814
:101CB0003FF4E1AE05E73046FFF7AAFE00F0F00280
:101CC00000F00F031032013343EA0232F2E6002340
:101CD0000DF10C090D221946CDF800902846FFF7AA
:101CE00093FA3046FFF794FE02064FF002070CD538
:101CF000039B00F07F00B840034430460393FFF796
:101D000087FE030607F10707F2D4039BCDF8009086
:101D100000F07F0403F50172BC400023144419460F
:101D20000D2228460394FFF791FAA4E610B5C36C80
:101D300084B05A6803208DF80C00DC798DF80D40D2
:101D400012020833084601A901920293FFF78CFEA4
:101D500004B010BD08B5FFF785FE806C08BD00BF5C
:101D600008B5FFF77FFEC06CC37900EB8300083035
:101D700008BD00BF08B504F03FFA00BF08B5FFF783
:101D8000F9FF00BF704700BF844641EA000313F02B
:101D900003036DD1403A41D351F8043B40F8043B72
:101DA00051F8043B40F8043B51F8043B40F8043B35
:101DB00051F8043B40F8043B51F8043B40F8043B25
:101DC00051F8043B40F8043B51F8043B40F8043B15
:101DD00051F8043B40F8043B51F8043B40F8043B05
:101DE00051F8043B40F8043B51F8043B40F8043BF5
:101DF00051F8043B40F8043B51F8043B40F8043BE5
:101E000051F8043B40F8043B51F8043B40F8043BD4
:101E100051F8043B40F8043B403ABDD2303211D374
:101E200051F8043B40F8043B51F8043B40F8043BB4
:101E300051F8043B40F8043B51F8043B40F8043BA4
:101E4000103AEDD20C3205D351F8043B40F8043B74
:101E5000043AF9D2043208D0D2071CBF11F8013B72
:101E600000F8013B01D30B8803806046704700BF38
:101E7000082A13D38B078DD010F003038AD0C3F147
:101E80000403D21ADB071CBF11F8013B00F8013B29
:101E900080D331F8023B20F8023B7BE7043AD9D3E8
:101EA000013A11F8013B00F8013BF9D20B780370BD
:101EB0004B7843708B788370604670470000000059
:101EC000A2EB0300704700BF02780B78012A28BFFD
:101ED0009A42F5D16DE9044540EA0104CDE9026773
:101EE0006FF0000C4FEA447212B380EA010414F060
:101EF000070F6AD100F0070420F0070004F0030583
:101F000021F007014FEAC505F0E8042314F0040F9F
:101F1000F1E804670CFA05F462EA040266EA0406D2
:101F20000AD063EA0403624667EA0407664603E0F0
:101F3000F0E80423F1E8046782FA4CF582EA06042B
:101F4000A4FA8CF46CBB83FA4CF583EA0705A5FA76
:101F50008CF595B950E9022351E9026782FA4CF5F4
:101F600082EA0604A4FA8CF483FA4CF583EA0705A6
:101F7000A5FA8CF52543DBD09CB92DBAB5FA85F4CA
:101F800024F0070427FA04F1DDE9026723FA04F3D9
:101F900003F0FF0001F0FF01FDE80445A0EB0100A4
:101FA000704724BAB4FA84F424F0070426FA04F142
:101FB000DDE9026722FA04F202F0FF0001F0FF01FE
:101FC000FDE80445A0EB0100704714F0030F3CD17D
:101FD00010F0030428D150F8082B51F8083B82FA7E
:101FE0004CF582EA0305A5FA8CF55DB950F8042C8E
:101FF00051F8043C82FA4CF582EA0305A5FA8CF507
:10200000002DE8D02DBAB5FA85F424F0070423FAA0
:1020100004F122FA04F202F0FF0001F0FF01FDE8F2
:102020000445A0EB010070474FEAC40420F0030010
:1020300050F8082B21F0030151F8083B0CFA04F486
:1020400062EA040263EA0403C9E710F003041AD049
:10205000A1EB040120F00300E40750F8042B06D0A4
:102060000FD28B785FFAA2F4E41A06D12BB1CB78A9
:102070005FFAB2F4E41A00D11BB920465DF8104BA8
:10208000704701F1040150F8042BCC0721F0030143
:1020900051F8043B48D824D222F07F4482FA4CF510
:1020A00094EA1325A5FA8CF50AD165B951F8043BD9
:1020B00084EA0204B4EB036F0ED150F8042BEBE773
:1020C0004FEA132355E035F07F454DD10878FDE800
:1020D0000445C0F1000070474FEA126203F0FF03AD
:1020E00047E002EA1C4482FA4CF594EA1345A5FA4B
:1020F0008CF50AD165B951F8043B84EA0204B4EBCB
:10210000034F0CD150F8042BEBE74FEA134330E0B8
:1021100015EA1C4528D10B884FEA124229E04FEA04
:10212000124203EA1C4324E002F0FF0482FA4CF559
:1021300094EA1365A5FA8CF50AD165B951F8043B08
:1021400084EA0204B4EB032F09D150F8042BEBE727
:102150004FEA13630DE015F0FF0F05D10B684FEA4E
:10216000122223F07F4304E04FF00000FDE8044515
:10217000704712BA1BBA82FA4CF482EA0304A4FA3A
:102180008CF5B5FA85F402FA04F203FA04F34FEA87
:102190001260FDE80445A0EB136070472DE9D043C1
:1021A0002DED028B044630EEC08AD0ED097A78EE30
:1021B000277AC0ED097A90ED0A7AF4EEC77AF1EE4B
:1021C00010FA01DD80ED097A18EE100AFEF76CF9BD
:1021D00006460F466068FEF767F902460B46304632
:1021E0003946FEF7B9F906460F46D4ED047A78EE83
:1021F000677A94ED037A67EE877A17EE900AFEF716
:1022000053F902460B4630463946FDF7EFFF0646C6
:102210000F4694ED097AD4ED027A67EE277A17EE2D
:10222000900AFEF741F902460B4630463946FDF763
:10223000DDFF80468946E069FEF736F906460F461F
:1022400042464B46FEF7FAFB08B946464F46206A1F
:10225000FEF72AF98046894632463B46FEF70CFCDB
:1022600058B184ED048A40464946FEF737FC00EE3B
:10227000100ABDEC028BBDE8D083B046B946F0E74A
:102280000B4A0260002202614261426280ED010A53
:10229000C0ED020A80ED031AC0ED061A80ED072A90
:1022A000B1EE422A80ED082AC0ED0A2A704700BF2D
:1022B000686D0008012800D070474FF6FF739942FF
:1022C000FAD1044B40F28A725A6040F28B729A60E3
:1022D000F2E700BF7408002008B5034800F036F8A4
:1022E000022002F0B0FFFBE77408002008B54FF6AB
:1022F000FF710120FFF7DEFF08BD000010B50F4C95
:10230000204600F033F89FED0E1ADFED0E0AB7EE0F
:10231000000A204600F013F901224FF480610A48B8
:1023200001F0EAFF054C204600F017F9204600F0C6
:102330003BF8022002F087FFF4E700BF8C08002082
:10234000CDCC4C3E00000000001C024010B50446FD
:102350000548206000F042FD206801F0EFF90221FD
:10236000206801F028FB10BDBC09002010B5044610
:102370000B48A06200F032FDA06A01F0DFF90221F3
:10238000A06A01F018FB0748A06200F027FDA06AD0
:1023900001F0D4F90221A06A01F00DFB10BD00BFCD
:1023A000BC090020E409002070B584B00446002375
:1023B000029303931A46012B14D803F10A0104EB8C
:1023C000810148680612511C04AD154405F8086CDB
:1023D0000232D2B204AD55FA81F101F8080C013392
:1023E000DBB2E8E7237902AA616A134800F01EFD18
:1023F00000230093019304220223022B14D803F13B
:102400000A0104EB810148680612511C04AD154411
:1024100005F8106C0232D2B204AD55FA81F101F820
:10242000100C0133DBB2E8E723796A46616A03489E
:1024300000F0FCFC04B070BDBC090020E4090020E1
:1024400070B5044608230371144B03604FF4007306
:1024500043620023C362036343638363C363036410
:1024600043648364C36400F150050D4E0FCE0FC565
:1024700096E8030085E80300DFED0A2A9FED0A2AAB
:10248000DFED0A1A9FED0A1ADFED0A0AB7EE000A1D
:1024900004F16800FFF7F4FE204670BD986D000857
:1024A000E46C00080000FA4300204B460080BB4566
:1024B000CDCC4C3E00000000012800D070474FF604
:1024C000FF739942FAD110B5044C942200212046A2
:1024D00004F078F92046FFF7B3FF10BD8C08002008
:1024E0000023022B0CDC10B451F8234003F10E0240
:1024F00040F822400133022BF6DD5DF8044B7047B3
:10250000704730B4147853784D1E43EA042300EB2F
:102510004504E3809378D47844EA0324CB1C00EB91
:102520004303DC801479537943EA0423073100EB39
:102530004101CB8093792844837730BC704780ED8C
:10254000140AC0ED150A80ED161A704708B54FF64B
:10255000FF710120FFF7B0FF08BD38B50546002424
:10256000022C1EDC231D05EB4303B3F9063000EEFD
:10257000103A04F10E0355F8233000EE903AF8EECD
:10258000E00AB8EEC00A05F16800FFF707FE04F1A3
:102590000A0305EB8303BDEEC00A83ED010A013493
:1025A000DEE738BD10B490F83E40E4B2202C30D1C4
:1025B000002932D0002B32D081628385002303644E
:1025C0000468636943F040036361164B1C68236829
:1025D00023F001032360134B1B681C6814F0010FE8
:1025E00004D01C6824F001041C60F4E70068043087
:1025F0009860D9601A6112225A601A6842F48022E7
:102600001A60084B1A68136843F001031360002036
:1026100000E002205DF8044B70470120FAE701203A
:10262000F8E700BFB00C002000B583B00023019391
:10263000094803681A6801925A680192019ADA6897
:1026400042F01002DA603223044A0549FFF7AAFF7C
:1026500003B05DF804FB00BF540D002054090020B6
:1026600040090020000000002DE9F04385B0002360
:10267000019302930393B04BB3F90200002862D098
:10268000AE4C00220023C4E90423FDF7FBFE0646FE
:102690000F46A5A3D3E90023FDF75EFFC4E90201BD
:1026A000A3A3D3E9002330463946FDF755FFC4E91B
:1026B0000001002418E0A14B03EBC403D3E9006739
:1026C0000022002330463946FEF7B8F958BB9B4B31
:1026D00003EBC40304AA02EB8405D3E90001FEF76F
:1026E000D5F945F80C0C0134022C2CDC934B03EB90
:1026F000C403D3E900670022002330463946FEF7C1
:10270000BBF90028D7D000228D4B30463946FEF762
:1027100095F90028CFD0894B03EBC40300208849EA
:10272000C3E90001C7E70022864B30463946FEF771
:10273000A3F90028CBD0814B03EBC40300208149CF
:10274000C3E90001C3E77C4BB3F90000002878D04F
:10275000FDF798FE8046894675A3D3E90023FDF76F
:10276000FBFE0022784BFDF7F7FE06460F46734C42
:1027700002460B46D4E90001FDF738FDC4E900012B
:1027800032463B46D4E90201FDF730FDC4E90201BF
:1027900065A3D3E9002340464946FDF7DDFE024626
:1027A0000B46D4E90401FDF721FDC4E9040100242E
:1027B00018E0624B03EBC403D3E900670022002357
:1027C00030463946FEF73AF958BB5C4B03EBC4037D
:1027D00004AA02EB8405D3E90001FEF757F945F896
:1027E0000C0C0134022C2CDC544B03EBC403D3E956
:1027F00000670022002330463946FEF73DF90028E5
:10280000D7D000224E4B30463946FEF717F9002844
:10281000CFD04A4B03EBC40300204949C3E9000170
:10282000C7E70022474B30463946FEF725F9002816
:10283000CBD0424B03EBC40300204249C3E9000163
:10284000C3E73D4BB3F9040000287FD0FDF71AFE23
:1028500037A3D3E90023FDF77FFE06460F46374C2A
:1028600002460B46D4E90001FDF7C0FCC4E90001B3
:1028700032463B46D4E90201FDF7B8FCC4E9020147
:1028800032463B46D4E90401FDF7B0FCC4E904013B
:10289000002418E0294B03EBC403D3E900670022AE
:1028A000002330463946FEF7C9F858BB234B03EBEB
:1028B000C40304AA02EB8405D3E90001FEF7E6F89D
:1028C00045F80C0C0134022C40DC1C4B03EBC40318
:1028D000D3E900670022002330463946FEF7CCF8E2
:1028E0000028D7D00022164B30463946FEF7A6F80E
:1028F0000028CFD0114B03EBC40300201049C3E9DB
:102900000001C7E700220F4B30463946FEF7B4F806
:102910000028CBD0094B03EBC40300200949C3E9CD
:102920000001C3E7AFF30080CA269B6CB2C92CC07C
:10293000CA269B6CB2C92C406809002028090020D7
:1029400000007940000079C00000E03F01A909487B
:10295000FFF7C6FD0023022B08DC074A02EBC30287
:1029600000200021C2E900010133F4E705B0BDE811
:10297000F08300BF8C0800202809002070B50D7876
:102980004B7845EA0325C5F30A05A5F58065ADB288
:1029900005804B788C78640144EAE304C4F30A04AC
:1029A000A4F58064A4B244808A78CB789B0043EA83
:1029B000A2130A7943EA8223C3F30A03A3F58063CF
:1029C0009BB283800E794A79D20142EA6602C2F351
:1029D0000A02A2F5806292B2C2800535ADB20A2D1C
:1029E00001D8002505800534A4B20A2C01D80024A2
:1029F000448005339BB20A2B01D800238380053223
:102A000092B20A2A01D80023C3804B799B09037232
:102A10004B79C3F301134372B0F90030002BB8BFF8
:102A20005B42B3F5257F17DCB0F90230002BB8BF4D
:102A30005B42B3F5257F0FDCB0F90430002BB8BF43
:102A40005B42B3F5257F07DCB0F90630002BB8BF39
:102A50005B42B3F5257F07DD00230360436083609D
:102A6000C3600361838270BD8B79CA7943EA022314
:102A700043810B7A4A7A43EA022383818B7ACA7AAA
:102A800043EA0223C3810B7B03744B7B43748B7B30
:102A9000CA7B43EA022343820B7C4A7C43EA02233B
:102AA000A3F580638382FFF7DFFDDCE700B583B029
:102AB0002F4B1B681A6812F0200F2FD12D4A126875
:102AC00012F0100F31D0002201921A6801925B6857
:102AD0000193019B284B1B681A6812F4002F27D121
:102AE0001A6822F001021A60234802685368C3F191
:102AF00032039BB221490B8032215160116841F4AD
:102B00000021116001680A6842F001020A60122B7C
:102B10000BD11B491B48FFF731FF06E00022009252
:102B20001A6800925B680093009B03B05DF804FB99
:102B30001A6822F001021A600F4908684368C3F15D
:102B400032030E4A1380322343600F48036823F494
:102B50000023036009680B6843F001030B601388CE
:102B6000122BE2D109490748FFF708FFDDE700BF54
:102B7000540D002000480040B00C00202009002027
:102B80004009002068090020286002405409002004
:102B900070B588B004461C4B01AA002100F071FEFC
:102BA0001A4B9C4204D01A4B9C4217D008B070BDFF
:102BB0009DF80450174E96F82430ED1AEDB2124AE3
:102BC00029463046FFF79DFC6A1E033506EB450596
:102BD000B5F90610104B23F81210E4E79DF80440F5
:102BE0000C4D95F82430E41AE4B2074A21462846F1
:102BF000FFF787FC621E033405EB4404B4F90610AA
:102C0000054B23F81210D1E780090020BC090020F1
:102C1000E40900208C0800208809002008B50D4830
:102C20000D4B03600323436000238360C3604FF4B4
:102C3000102202614FF400124261037643768376DC
:102C4000C3760377437700F03DFC00B908BD00F080
:102C5000BBF9FBE7BC0900200064004008B50D4843
:102C60000D4B03600323436000238360C3604FF474
:102C7000102202614FF4001242610376437683769C
:102C8000C3760377437700F01DFC00B908BD00F060
:102C90009BF9FBE7E40900200068004010B58AB00A
:102CA0000023059306930793089309930368454A05
:102CB000934204D0444A93423CD00AB010BD434AE8
:102CC000136801331360012B27D000240194404B7B
:102CD0001A6B42F008021A631B6B03F0080301939E
:102CE000019B03230593022206920893092309936B
:102CF00005A9384801F016FA22460521132000F0F4
:102D0000B7FF132000F0E8FF22460521142000F051
:102D1000AFFF142000F0E0FFCFE7002300932C4B1F
:102D20001A6C42F000721A641B6C03F0007300937B
:102D3000009BCAE700230293254B1A6C42F0806285
:102D40001A641B6C03F080630293029B1F4A136892
:102D500001331360012B28D0002404941C4B1A6B00
:102D600042F002021A631B6B03F002030493049BFC
:102D700060230593022306930323089309230993F1
:102D800005A9154801F0CEF9224605213F2000F0A3
:102D90006FFF3F2000F0A0FF22460521402000F0F9
:102DA00067FF402000F098FF87E700230393084B5C
:102DB0001A6C42F000721A641B6C03F000730393E8
:102DC000039BC9E70064004000680040B809002088
:102DD00000380240000C02400004024008B50268BE
:102DE0000F4B9A4213D002680E4B9A4213D00E49F1
:102DF00000238B610122CA610B604B608B60CB604A
:102E00000B610A620E234B6200F002FC08BD064B08
:102E100001225A61E7E7044B0E225A61E7E700BF3F
:102E200000640040006800409009002010B588B0A0
:102E300000240594049402918DF81C40069301AB84
:102E400002A900F0A9FC08B908B010BD00F0BCF858
:102E5000FAE7000000B583B000220192094B196B1C
:102E600041F4001119631B6B03F400130193019BE0
:102E700005210C2000F0FCFE0C2000F02DFF03B01B
:102E80005DF804FB00380240FEE70000034B0360DE
:102E9000034B0B6080231360704700BF100C0020B1
:102EA000100A0020F0B597B0154C0FAD26460FCE96
:102EB0000FC596E8070085E8070000210FA802F07B
:102EC0008CF9104F386008AD04F11C060FCE0FC509
:102ED00096E8070085E80700002108A802F07DF9C0
:102EE000386001AD38340FCC0FC594E8070085E891
:102EF0000700002101A802F070F9386017B0F0BD9A
:102F0000FC6C00080C0A002030B58BB0002405943E
:102F100006940794089409940094234B1A6B42F08A
:102F200002021A631A6B02F002020092009A0194E4
:102F30001A6B42F001021A631A6B02F0010201924D
:102F4000019A02941A6B42F008021A631A6B02F09B
:102F500008020292029A03941A6B42F004021A6366
:102F60001A6B02F004020392039A04941A6B42F063
:102F700080021A631B6B03F080030493049B0B4DC8
:102F800022464FF4E051284601F0B6F94FF4E053E1
:102F90000593012306930794089405A9284601F098
:102FA000C1F80BB030BD00BF00380240001C024029
:102FB00008B50268034B9A4200D008BD00F070FAD1
:102FC000FBE700BF0040014072B6FEE700B595B0D8
:102FD0003022002108A803F0F5FB0023039304939B
:102FE0000593069307930193204A116C41F0805199
:102FF0001164126C02F080520192019A02931C4BF0
:103000001A6842F480421A601B6803F480430293FA
:10301000029B012308934FF48033099302230E93FC
:103020004FF480020F9206221092A822119212935E
:103030000423139308A801F065F998B90F230393AB
:1030400002230493002305934FF4A05306934FF4F7
:1030500080530793052103A801F0A4FB20B915B004
:103060005DF804FBFFF7B0FFFFF7AEFF003802404A
:103070000070004008B500F0F9F9FFF7A7FFFFF76F
:1030800043FFFFF7E7FEFFF7C9FDFFF7E7FD00F09D
:10309000E7F800F0FFF8FFF7C7FAFFF703FF02F0C9
:1030A00097F8FEE700B583B0002200920D4B596CF3
:1030B00041F480415964596C01F4804100910099B8
:1030C0000192196C41F0805119641B6C03F080531C
:1030D0000193019B0F216FF0010000F0C9FD03B0C7
:1030E0005DF804FB0038024010B588B000220146AC
:1030F000182000F0BDFD182000F0EEFD0024019422
:10310000144B5A6C42F480325A645B6C03F4803383
:103110000193019B02A903A801F01AFC01F008FC2D
:1031200043000D48A0FB03239B0C013B0B480C4ABA
:10313000026040F2E732C26043600461846001F0E3
:1031400091FD10B1012008B010BD044801F020FC31
:10315000F9E700BF0038024083DE1B43640C002007
:1031600000400140FEE7FEE7FEE7FEE7FEE77047AE
:1031700008B5024800F0E8FE08BD00BFB00C002012
:1031800008B5024800F035FC08BD00BFBC090020AE
:1031900008B5024800F02DFC08BD00BFBC090020A6
:1031A00008B5024801F03CFC08BD00BF640C0020DB
:1031B00008B5FFF77BFC024801F008FF08BD00BF1F
:1031C000540D002008B5024800F013FC08BD00BFF4
:1031D000E409002008B5024800F00BFC08BD00BF60
:1031E000E40900200120704708B503F00DF816230C
:1031F00003604FF0FF3008BD08B54FF0FF31FFF717
:10320000F3FFFEE710B503460C4A0D490D48006870
:1032100040B10C4800680344521A934206D8094A48
:10322000136010BD0748084C0460F2E702F0ECFFA1
:103230000C2303604FF0FF30F3E700BF00000220D3
:1032400000040000AC0C0020484B0020034AD2F8D8
:10325000883043F47003C2F88830704700ED00E016
:1032600008B50A480A4B03604FF4E133436000237A
:103270008360C36003610C2242618361C36101F01A
:1032800003FE00B908BDFFF79FFEFBE7100D00200D
:103290000010014008B50B480B4B03600B4B43601B
:1032A00000238360C3604FF4806202610C2242619C
:1032B0008361C36101F0E8FD00B908BDFFF784FE3A
:1032C000FBE700BF540D002000480040A08601002D
:1032D000F0B58BB0002305930693079308930993E9
:1032E0000368454A934205D00446444A934239D084
:1032F0000BB0F0BD00240094414B5A6C42F0100218
:103300005A645A6C02F010020092009A01941A6BEF
:1033100042F002021A631A6B02F002020192019A51
:1033200002941A6B42F001021A631B6B03F0010353
:103330000293029B80230593022706970326089693
:103340000725099505A92F4800F0ECFE4FF40073FE
:103350000593069707940896099505A92A4800F051
:10336000E1FEC5E700250395254B1A6C42F4802247
:103370001A641A6C02F480220392039A04951A6B61
:1033800042F004021A631B6B03F004030493049BD2
:103390004FF4406305930223069303230893072306
:1033A000099305A9194800F0BDFE1948194B03609F
:1033B0004FF0006343608560C5604FF48063036134
:1033C000456185614FF48073C3614FF440330362FC
:1033D000456200F0F5FC58B90D4BA3639C630022D5
:1033E0000521272000F044FC272000F075FC7FE732
:1033F000FFF7EAFDF0E700BF001001400048004081
:103400000038024000040240000002400008024070
:10341000B00C002028600240DFF834D00D480E497F
:103420000E4A002302E0D458C4500433C4188C421E
:10343000F9D30B4A0B4C002301E013600432A24283
:10344000FBD3FFF703FF02F0E5FEFFF713FE704723
:1034500000000220000000205408002040700008F6
:1034600058080020484B0020FEE7000008B50B4B31
:103470001A6842F400721A601A6842F480621A6094
:103480001A6842F480721A60032000F0DFFB00200B
:10349000FFF72AFEFFF706FE002008BD003C0240B1
:1034A000034A1168034B1B780B441360704700BF3D
:1034B000980D002004000020014B1868704700BFE1
:1034C000980D0020002800F0A18038B5044690F83F
:1034D0002030D3B12268136823F002031360FFF792
:1034E000EBFF054623685A6812F0020F10D0FFF771
:1034F000E3FF401B0A28F5D9636A43F40033636293
:10350000052384F82030012038BDFFF7C7FBE1E731
:103510001A6842F001021A60FFF7CEFF05462368E1
:103520005A6812F0010F0DD1FFF7C6FF401B0A28A1
:10353000F5D9636A43F400336362052384F82030CD
:103540000120E1E7227E012A3DD01A6822F08002A4
:103550001A60637E012B3BD02268136823F040037E
:103560001360A37E012B39D02268136823F0200357
:103570001360E37E012B37D02268136843F01003F9
:103580001360237F012B35D02268136823F00803D2
:103590001360637F012B33D02268136823F0040388
:1035A0001360A368E26813432269134362691343FB
:1035B0006268013A21681343CB61002060620123F5
:1035C00084F82030A0E71A6842F080021A60C0E751
:1035D0002268136843F040031360C2E7226813684F
:1035E00043F020031360C4E72268136823F010033C
:1035F0001360C6E72268136843F008031360C8E746
:103600002268136843F004031360CAE7012070477F
:1036100090F82030013BDBB2012B05D9436A43F41B
:10362000802343620120704770B4434BD3F80022DB
:1036300042F00102C3F80022D3F8002222F47C52A7
:10364000C3F80022D3F80022486A42EA0022C3F8F5
:1036500000224A6902F01F02012000FA02F2D3F8A8
:103660001C42D0430440C3F81C42CB69B3B9324B6F
:10367000D3F80C420440C3F80C42CE688D884C69E4
:1036800045EA0645483443F834508E680C884D6945
:1036900044EA0644483503EBC5035C60CB69012B63
:1036A0001DD08B69002B32D1234CD4F80432034057
:1036B000C4F804320B698BBB1F4BD3F81442204073
:1036C000C3F814020B6A012B2FD01B4AD2F8003228
:1036D00023F00103C2F80032002070BC7047164B83
:1036E000D3F80C421443C3F80C420E688D884C6921
:1036F00045EA0645483443F834508E688C894D6954
:1037000044EA0644483503EBC5035C60C9E70A4C4C
:10371000D4F804321343C4F80432CBE70648D0F897
:1037200014321343C0F81432CCE70349D1F81C32E9
:103730001A43C1F81C22C8E70064004038B590F86D
:103740002030DBB2012B05D0436A43F400234362EF
:10375000012038BD0446022380F820300268136837
:1037600023F001031360FFF7A7FE054623685B689B
:1037700013F0010F0DD0FFF79FFE401B0A28F5D96B
:10378000636A43F400336362052384F82030012028
:10379000DFE700206062DCE770B490F82040056845
:1037A000AD68013CE4B2012C06D9436A43F480239E
:1037B0004362012070BC704715F0E05F5BD0C5F339
:1037C0000165022D3ED80124AC401C608B68002BA3
:1037D0003ED10E68CB68046843EA465605F11803EB
:1037E0001B01E65003680C6905F1180603EB06138C
:1037F0005C600B7D012B36D0D17993791B0443EAB1
:103800000163517943EA01231479016823432C01B0
:103810002144C1F88C31D17893781B0443EA0163C9
:10382000517843EA0123117802680B432244C2F81D
:103830008831026818352D01535943F00103535163
:103840000020B7E7436A43F4000343620120B1E775
:103850004C6843EAC403CC680668234305F11804A6
:1038600024013351BEE7036803EB0613596841F4A2
:1038700080715960C0E7436A43F40013436201203A
:1038800098E730B490F82040013CE4B2012C06D90E
:10389000436A43F480234362012030BC704700290F
:1038A0006FD10468E46814F0030F64D0056801F177
:1038B0001B0424012C5904F004049460002C6BD1E7
:1038C000056801F11B0424012C59640D146005687E
:1038D00001F11B0424012D5905F00205D56005688E
:1038E00025446D6805F00F051561056825446D6870
:1038F000C5F30725956105682C446468240C546160
:1039000004680A011444D4F8B8411C7004681444D3
:10391000D4F8B841C4F307245C7004681444D4F8A4
:10392000B841C4F307449C7004681444D4F8B84107
:10393000240EDC7004681444D4F8BC411C71046883
:103940001444D4F8BC41C4F307245C7104681444E3
:10395000D4F8BC41C4F307449C7104682244D2F8F3
:10396000BC21120EDA71F9B90268D36843F0200362
:10397000D360002091E7436A43F4001343620120BF
:103980008BE70468246914F0030F8FD1436A43F472
:1039900000134362012080E7056801F11B04240144
:1039A0002C59E408546092E70268136943F020033D
:1039B0001361002071E790F82030013BDBB2012B4E
:1039C00005D9436A43F480234362012070470268AB
:1039D0005369194351610020704770477047704721
:1039E000704770477047704770477047704770471F
:1039F00070472DE9F84F054603685C695F689E686B
:103A0000D3F80C90D3F81080D3F818A014F0010F5D
:103A10005AD016F0010F17D001229A6016F0020F4B
:103A200008D116F0040F30D116F0080F07D04FF46C
:103A3000805B0BE0FFF7D1FF4FF0000B06E0FFF7D4
:103A4000CFFF4FF0000B01E04FF0000B16F4807F2A
:103A50000BD02B684FF480729A6016F4007F17D158
:103A600016F4806F18D04BF4005B16F4803F2DD015
:103A70002B684FF480329A6016F4003F16D116F48A
:103A8000802F17D04BF4004B20E04FF4006BDDE7A4
:103A90002846FFF7A3FFE8E716F4006F02D04BF4C7
:103AA000804BE2E72846FFF79CFFDEE72846FFF75A
:103AB00096FF0BE016F4002F02D04BF4803B05E09C
:103AC0002846FFF78FFF01E04FF0000B14F0080FBE
:103AD00007D019F0100F04D04BF4007B2B68102294
:103AE000DA6014F0040F02D019F0080F60D114F05E
:103AF000020F04D02B68DB6813F0030F5FD114F0C2
:103B0000400F07D018F0100F04D04BF4806B2B68D7
:103B100010221A6114F0200F02D018F0080F52D1B1
:103B200014F0100F04D02B681B6913F0030F51D150
:103B300014F4003F02D017F0100F4FD114F4803F5F
:103B400002D017F0080F50D114F4004F67D017F0CF
:103B5000040F61D014F4807F04D01AF0010F01D05B
:103B60004BF0010B14F4007F04D01AF0020F01D0C7
:103B70004BF0020B14F4806F04D01AF0040F01D044
:103B80004BF0040B14F4006F46D01AF0700A43D0C7
:103B9000BAF1300F48D02FD9BAF1500F47D0BAF14F
:103BA000600F47D0BAF1400F31D14BF0400B2EE0FF
:103BB0002B680822DA602846FFF715FF97E72846AA
:103BC000FEF7E6FF9BE72B6808221A612846FFF7FD
:103BD0000CFFA5E72846FFF707FFA9E72B6810228F
:103BE0005A602846FFF702FFA8E72B6808225A60B0
:103BF0002846FFF7FCFEA7E7BAF1100F05D0BAF18F
:103C0000200F04D14BF0100B01E04BF0080B2A6899
:103C1000936923F0700393612B6804225A60BBF10F
:103C2000000F0AD1BDE8F88F4BF0200BEFE74BF007
:103C3000800BECE74BF4807BE9E76B6A43EA0B030C
:103C40006B622846FFF7D4FEECE70000074AD36812
:103C500023F4E0631B041B0C000200F4E060184333
:103C600040F0BF6040F40030D060704700ED00E0ED
:103C700030B4174BDB68C3F30223C3F10704042CF1
:103C800028BF04241D1D062D18D9033B4FF0FF3516
:103C900005FA04F421EA0401994005FA03F322EA43
:103CA0000303194300280BDB0901C9B200F160408E
:103CB00000F5614080F8001330BC70470023E5E751
:103CC00000F00F000901C9B2024B1954F4E700BF1C
:103CD00000ED00E014ED00E0002807DB00F01F021B
:103CE000400901239340024A42F82030704700BF48
:103CF00000E100E00268D3B2103B0B49A1FB0313C3
:103D00001B090A49C95CC165032B06D822F47F72DE
:103D100022F003028265806D704722F47F7222F0E8
:103D2000030204328265F6E7ABAAAAAAE86D00088E
:103D3000836A826992B9012B0AD01BB1022B01D090
:103D400000207047C36A13F0807F2CD10020704799
:103D5000C36AB3F1C07F28D000207047B2F5005F7E
:103D600005D0022B29D9032B15D000207047032B37
:103D700003D8DFE803F01C041C0A00207047C36A64
:103D800013F0807F15D100207047C36AB3F1C07F64
:103D900011D000207047C36A13F0807F01D001204A
:103DA00070470020704701207047012070470120B4
:103DB00070470120704701207047012070470000C4
:103DC00070B50446FFF778FB002C5BD00546002356
:103DD00084F83430022384F835302268136823F0E5
:103DE0000103136023681A6812F0010F0AD0FFF76D
:103DF00063FB401B0528F5D920236365032084F865
:103E0000350070BD1A68204810406168A2680A43F6
:103E1000E1680A4321690A4361690A43A1690A43C7
:103E2000E1690A43216A0A430243616A04291ED0F8
:103E30001A602668756925F00705636A1D43042B1F
:103E400007D1A36A1D43E36A1BB12046FFF770FF49
:103E500090B975612046FFF74DFFE26D3F23934017
:103E6000836000206065012384F83530C9E7E16A8A
:103E7000206B01430A43DBE740236365012084F89C
:103E80003500BEE70120BCE73F8010F070B5044666
:103E9000866DFFF711FB94F83530DBB2022B06D0AC
:103EA00080236365002384F83430012070BD05460B
:103EB0002268136823F0160313602268536923F005
:103EC00080035361236CE3B12268136823F0080375
:103ED00013602268136823F00103136023681B68D2
:103EE00013F0010F11D0FFF7E7FA401B0528F5D9B1
:103EF00020236365002384F83430032084F83500E0
:103F0000D4E7A36C002BDFD1E3E7E26D3F239340BE
:103F1000B360002084F83400012384F83530C5E70D
:103F200090F83530DBB2022B03D0802343650120AB
:103F30007047052380F835300268136823F00103C9
:103F40001360002070470000F0B583B004460023E2
:103F50000193724B1D68724BA3FB0535AD0A876D4B
:103F60003E68C26D08239340334210D003681A683C
:103F700012F0040F0BD01A6822F004021A60C26D0E
:103F800008239340BB60436D43F001034365E26D3A
:103F900001239340334209D02268526912F0800F06
:103FA00004D0BB60636D43F002036365E26D0423DC
:103FB0009340334209D02268126812F0020F04D0F5
:103FC000BB60636D43F004036365E26D10239340AF
:103FD000334224D02268126812F0080F1FD0BB6051
:103FE00023681A6812F4802F0DD01B6813F4002F79
:103FF00004D1236C9BB12046984710E0A36C73B1A9
:10400000204698470BE01A6812F4807F03D11A68A3
:1040100022F008021A60236C0BB120469847E26D2B
:1040200020239340334255D02268126812F0100FBB
:1040300050D0BB6094F83530DBB2052B0ED023682E
:104040001A6812F4802F33D01B6813F4002F2AD182
:10405000636C002B3ED0204698473BE022681368F3
:1040600023F0160313602268536923F08003536121
:10407000236CA3B12268136823F008031360E26D78
:104080003F239340BB60002384F83430012384F83D
:104090003530236D002B3FD0204698473CE0A36C81
:1040A000002BE7D1EBE7E36BA3B12046984711E083
:1040B0001A6812F4807F09D11A6822F010021A607F
:1040C000002384F83430012384F83530E36B0BB1DE
:1040D00020469847636DFBB1636D13F0010F17D055
:1040E000052384F835302268136823F00103136038
:1040F000019B01330193AB4204D823681B6813F082
:10410000010FF5D1002384F83430012384F83530D1
:10411000E36C0BB12046984703B0F0BD00000020CF
:10412000B5814E1B00230F2B00F2DC80F0B482B06F
:104130005DE086685F000324BC4026EA0406CC6884
:10414000BC4034438460466826EA02064C68C4F3E7
:1041500000129A403243426056E0DC08083450F8BE
:10416000247003F0070296000F22B24027EA0207EC
:104170000A69B2403A4340F8242059E0072200E09F
:104180000022B2403A430234574E46F82420574AA0
:104190001468EA4302EA04064F6817F4803F01D02E
:1041A00045EA0406514C2660646802EA04064F683A
:1041B00017F4003F01D045EA04064C4C6660A46841
:1041C00002EA04064F6817F4801F01D045EA04068E
:1041D000464CA660E46822404E6816F4001F01D0E9
:1041E00045EA0402414CE26001330F2B77D80122EB
:1041F0009A400C6804EA0205AA42F5D14C6804F022
:104200000304013C012C94D94A6802F00302032AFA
:1042100009D0C4685E000322B24024EA02048A681E
:10422000B2402243C2604A6802F00302022A94D0DC
:1042300004685E000322B24024EA02044A6802F0E5
:104240000302B240224302604A6812F0805FCBD082
:1042500000220192264A546C44F480445464526C07
:1042600002F480420192019A9C08A61C1E4A52F850
:10427000267003F0030296000F22B24027EA0207DD
:104280001C4A90423FF47CAF02F5806290421AD003
:1042900002F58062904218D002F58062904216D0FA
:1042A00002F58062904214D002F58062904212D0F2
:1042B00002F58062904210D002F5806290423FF495
:1042C0005DAF08225DE701225BE7022259E7032286
:1042D00057E7042255E7052253E7062251E702B0CB
:1042E000F0BC7047704700BF00380140003C0140FF
:1042F000003802400000024012B909048161704791
:1043000081617047002800F0E98170B582B00446F1
:10431000036813F0010F3BD0A74B9B6803F00C031D
:10432000042B2CD0A44B9B6803F00C03082B21D04A
:104330006368B3F5803F4FD0B3F5A02F52D09E4BAA
:104340001A6822F480321A601A6822F480221A60F5
:104350006368002B50D0FFF7AFF80546964B1B68FB
:1043600013F4003F14D1FFF7A7F8401B6428F5D9D8
:104370000320B8E1904B5B6813F4800FD8D08E4BCC
:104380001B6813F4003F03D06368002B00F0A88182
:10439000236813F0020F55D0874B9B6813F00C0F66
:1043A0003ED0854B9B6803F00C03082B33D0E368A9
:1043B000002B68D0814B01221A60FFF77DF805467B
:1043C0007D4B1B6813F0020F54D1FFF775F8401BAB
:1043D0000228F5D9032086E1774A136843F4803335
:1043E0001360B5E7744B1A6842F480221A601A68A9
:1043F00042F480321A60ABE7FFF75EF805466E4B79
:104400001B6813F4003FC3D0FFF756F8401B642825
:10441000F5D9032067E1684B5B6813F4800FC6D1C0
:10442000654B1B6813F0020F04D0E368012B01D029
:10443000012058E1604A136823F0F803216943EA38
:10444000C1031360236813F0080F40D0636963B39E
:104450005B4B01221A60FFF72FF80546564B5B6F46
:1044600013F0020F33D1FFF727F8401B0228F5D9CC
:10447000032038E1504A136823F0F803216943EA26
:10448000C1031360DEE74D4B00221A60FFF714F8FA
:104490000546494B1B6813F0020FD3D0FFF70CF809
:1044A000401B0228F5D903201DE1454B00221A606C
:1044B000FFF702F80546404B5B6F13F0020F06D082
:1044C000FEF7FAFF401B0228F5D903200BE1236811
:1044D00013F0040F79D0384B1B6C13F0805F33D18D
:1044E00000230193344B1A6C42F080521A641B6C07
:1044F00003F080530193019B0125324B1B6813F499
:10450000807F23D0A368012B34D0052B38D02A4BD1
:104510001A6F22F001021A671A6F22F004021A675A
:10452000A368002B36D0FEF7C7FF0646224B1B6F51
:1045300013F0020F48D1FEF7BFFF801B41F2883312
:104540009842F3D90320CEE00025D6E71D4A136830
:1045500043F480731360FEF7AFFF0646194B1B68E8
:1045600013F4807FCED1FEF7A7FF801B0228F5D978
:104570000320B8E0104A136F43F001031367CFE73D
:104580000D4B1A6F42F004021A671A6F42F00102D3
:104590001A67C5E7FEF790FF0646074B1B6F13F03F
:1045A000020F11D0FEF788FF801B41F2883398423A
:1045B000F3D9032097E000BF0038024000004742D3
:1045C000800E474200700040EDB9A369002B00F057
:1045D0008980484A926802F00C02082A51D0022BC6
:1045E00017D0454B00221A60FEF766FF0446414B88
:1045F0001B6813F0007F42D0FEF75EFF001B02280D
:10460000F5D903206FE03B4A136C23F08053136409
:10461000DBE7394B00221A60FEF74EFF0546354BAB
:104620001B6813F0007F06D0FEF746FF401B0228F0
:10463000F5D9032057E0E369226A1343626A43EA2B
:104640008213A26A5208013A43EA0243E26A43EA49
:104650000263284A5360284B01221A60FEF72CFFA0
:104660000446244B1B6813F0007F06D1FEF724FF9D
:10467000001B0228F5D9032035E0002033E000209C
:1046800031E0012B31D01B4B5B6803F48001E26900
:10469000914201D0012026E003F03F02216A8A42C4
:1046A00001D001201FE0616A47F6C0721A40B2EBE8
:1046B000811F01D0012016E003F44031A26A5208A4
:1046C000013AB1EB024F01D001200CE003F070631E
:1046D000E26AB3EB026F0AD0012004E001207047C8
:1046E000012000E0002002B070BD0120FBE70020A7
:1046F000F9E700BF0038024060004742264B9B6844
:1047000003F00C03042B44D0082B01D0234870473E
:104710002DE9F04B204B5A6802F03F025B6813F41E
:10472000800F13D01C4B5968C1F3881100231C481B
:10473000A1FB0001FCF722FA174B5B68C3F30143AE
:1047400001335B00B0FBF3F0BDE8F08B124B5B680C
:10475000C3F388131E4600275C010025E41A65EBAD
:104760000705A90141EA9461A001001B61EB050165
:10477000CB0043EA5073C400A01943EB07018B023E
:1047800043EA90538402204619460023FCF7F6F9C9
:10479000D2E70348704700BF003802400024F4000D
:1047A000001BB700002800F09E8070B50446504BF7
:1047B0001B6803F007038B4209D2CBB24C4A13703B
:1047C000136803F007038B4201D0012070BD2368FA
:1047D00013F0020F17D013F0040F04D0454A93686A
:1047E00043F4E0539360236813F0080F04D0414A68
:1047F000936843F4604393603E4A936823F0F00368
:10480000A068034393600D46236813F0010F32D074
:104810006368012B21D09A1E012A25D9354A1268D6
:1048200012F0020F61D033498A6822F00302134369
:104830008B60FEF741FE06462E4B9B6803F00C038F
:104840006268B3EB820F16D0FEF736FE801B41F292
:1048500088339842F0D90320B8E7264A126812F448
:10486000003FE0D10120B1E7224A126812F0007F38
:10487000D9D10120AAE71E4B1B6803F00703AB4206
:1048800009D9EAB21A4B1A701B6803F00703AB424E
:1048900001D001209AE7236813F0040F06D0154ACF
:1048A000936823F4E053E1680B439360236813F0AB
:1048B000080F07D00F4A936823F46043216943EA45
:1048C000C1039360FFF71AFF0A4B9B68C3F30313FE
:1048D000094AD35CD840094B1860094B1868FEF7A9
:1048E00003FC002072E70120704701206EE700BF43
:1048F000003C024000380240D06D0008000000205B
:1049000008000020014B1868704700BF000000201D
:1049100008B5FFF7F7FF044B9B68C3F38223034AF4
:10492000D35CD84008BD00BF00380240E06D0008ED
:1049300008B5FFF7E7FF044B9B68C3F34233034A14
:10494000D35CD84008BD00BF00380240E06D0008CD
:104950000F2303600B4B9A6802F0030242609A68CF
:1049600002F0F00282609A6802F4E052C2609B6832
:10497000DB0803F4E0530361034B1B6803F00703F8
:104980000B60704700380240003C02407047000056
:1049900090F83D30DBB2012B01D00120704702239B
:1049A00080F83D300268D36843F00103D3600368A8
:1049B000184A934220D0B3F1804F1DD0A2F57C421B
:1049C000934219D002F58062934215D002F58062BD
:1049D000934211D002F5784293420DD002F5705205
:1049E000934209D0A2F59432934205D01A6842F05E
:1049F00001021A60002070479A6802F00702062A36
:104A000005D01A6842F001021A60002070470020A9
:104A1000704700BF00000140704770477047704703
:104A200010B5044603681A6912F0020F11D0DA6853
:104A300012F0020F0DD06FF002021A61012303770A
:104A400003689B6913F0030F70D0FFF7E6FF0023A4
:104A5000237723681A6912F0040F12D0DA6812F073
:104A6000040F0ED06FF004021A610223237723682B
:104A70009B6913F4407F5FD02046FFF7CEFF0023F1
:104A8000237723681A6912F0080F12D0DA6812F03F
:104A9000080F0ED06FF008021A61042323772368F1
:104AA000DB6913F0030F4ED02046FFF7B6FF00235B
:104AB000237723681A6912F0100F12D0DA6812F007
:104AC000100F0ED06FF010021A61082323772368AD
:104AD000DB6913F4407F3DD02046FFF79EFF0023A3
:104AE000237723681A6912F0010F03D0DA6812F0F5
:104AF000010F36D123681A6912F0800F03D0DA68EB
:104B000012F0800F34D123681A6912F0400F03D0DD
:104B1000DA6812F0400F32D123681A6912F0200FC0
:104B200003D0DA6812F0200F30D110BDFFF774FF08
:104B30002046FFF773FF8AE72046FFF76DFF204608
:104B4000FFF76CFF9BE72046FFF766FF2046FFF765
:104B500065FFACE72046FFF75FFF2046FFF75EFFEB
:104B6000BDE76FF001021A612046FEF721FAC1E7A6
:104B70006FF080021A61204600F0A0F8C3E76FF0E2
:104B800040021A612046FFF74AFFC5E76FF0200296
:104B90001A61204600F091F8C7E700000368304A28
:104BA000904212D0B0F1804F0FD0A2F57C429042DB
:104BB0000BD002F58062904207D002F580629042ED
:104BC00003D002F57842904203D123F070034A6883
:104BD0001343234A90422AD0B0F1804F27D0A2F548
:104BE0007C42904223D002F5806290421FD002F5B1
:104BF000806290421BD002F57842904217D002F5B5
:104C00007052904213D002F5806290420FD002F5AC
:104C1000806290420BD0A2F59832904207D002F504
:104C20008062904203D002F58062904203D123F467
:104C30004073CA68134323F080034A691343036037
:104C40008B68C3620B688362054B984203D003F5FF
:104C50008063984201D10B6903630123436170476C
:104C60000000014038B310B5044690F83D30EBB178
:104C7000022384F83D30211D2068FFF78FFF0123B8
:104C800084F8463084F83E3084F83F3084F8403071
:104C900084F8413084F8423084F8433084F844305A
:104CA00084F8453084F83D30002010BD80F83C3059
:104CB000FFF76CFEDCE70120704770477047026821
:104CC000D36823F49073D3600268536923F001031F
:104CD0005361036B012B05D0202380F83E30002365
:104CE000036370470268D36823F01003D360F3E7CF
:104CF00090F83D30DBB2212B27D18368B3F5805F7C
:104D000016D0036A5A1C02621A7803685A60C38C70
:104D1000013B9BB2C384D3B90268D36823F08003FC
:104D2000D3600268D36843F04003D360002070472B
:104D30000369002BE5D1036A1B880268C3F30803EB
:104D40005360036A02330362E1E7022070470020E8
:104D5000704700002DE9F04B04460268136923F404
:104D60004053C1680B43136183680269134342696E
:104D70001343C2691A430168CB6823F4164323F036
:104D80000C031343CB600268536923F440738169B9
:104D90000B43536103683A4A934206D002F580629E
:104DA000934202D0FFF7B4FD01E0FFF7C1FDE369D4
:104DB000B3F5004F30D04FF00009061849EB090752
:104DC00016EB000B47EB090C4FEACC0343EA5B738D
:104DD0004FEACB0293469C4663689A009B0F10EB08
:104DE0000B0049EB0C01FBF7C9FE264DA5FB003279
:104DF0005109642202FB110213013233A5FB032384
:104E00005B0903F0F00202EB011203F00F032168CB
:104E100013448B60BDE8F08B83464FF0000C0618FE
:104E20004CEB0C0716EB000847EB0C094FEAC903E3
:104E300043EA58734FEAC8029046994662680021D7
:104E4000921841EB01031BEB08004CEB0901FBF747
:104E500095FE0C4DA5FB00325109642202FB1102A4
:104E6000D3003233A5FB03235B095A0002F4F87226
:104E700002EB011203F00703216813448B60C9E7BA
:104E8000001001401F85EB5158B310B5044690F84F
:104E90003D300BB3242384F83D302268D36823F4DB
:104EA0000053D3602046FFF755FF2268136923F4AF
:104EB000904313612268536923F02A0353612268E7
:104EC000D36843F40053D36000202064202384F887
:104ED0003D3084F83E3010BD80F83C30FEF7F8F9E4
:104EE000D8E701207047704708B50168CB6823F008
:104EF0004003CB60202380F83D30FFF7F4FF002013
:104F000008BD7047704708B5806B0023C385C38414
:104F1000FFF7F8FF08BD704790F83E30DBB2222B58
:104F200050D18368B3F5805F30D0826AB3F5805F7B
:104F300004D0002B37D10369002B34D103685B68A0
:104F40001370836A01338362C38D013B9BB2C385B7
:104F5000002B39D110B504460268D36823F0200332
:104F6000D3600268D36823F48073D3600268536906
:104F700023F001035361202380F83E30036B012BA3
:104F800017D0FFF7BEFF0020206310BD0269002A82
:104F9000CBD1826A03685B68C3F308031380836A1A
:104FA00002338362D0E703685B6803F07F0313700A
:104FB000C7E70268D36823F01003D360818DFFF741
:104FC000AAFFE0E7022070470020704730B583B0A9
:104FD000044602681368D068516913F00F0505D1C3
:104FE00013F0200F02D010F0200F56D1002D6AD000
:104FF00011F0010102D110F4907F64D013F0010F81
:1050000006D010F4807F03D0226C42F001022264AB
:1050100013F0040F04D019B1226C42F00202226492
:1050200013F0020F04D019B1226C42F00402226482
:1050300013F0080F07D010F0200F00D119B1226C27
:1050400042F008022264226C002A4BD013F0200F99
:1050500002D010F0200F24D123685B6903F04003D5
:10506000226C12F0080F00D13BB32046FFF727FE59
:1050700023685A6912F0400F1BD05A6922F040028F
:105080005A61A36B8BB14E4A1A65A06BFEF748FFBD
:1050900040B3A06B036D984724E02046FFF73CFF28
:1050A00020E02046FFF738FFD6E72046FFF72AFF2B
:1050B00018E02046FFF726FF14E02046FFF722FF06
:1050C000002323640EE0216B01290DD013F0800F23
:1050D00002D010F0800F6AD113F0400F02D010F010
:1050E000400F68D103B030BD13F0100FEED010F0B8
:1050F000100FEBD0002301931368019353680193C1
:10510000019B536913F0400F30D0A16B0B685B68B3
:105110009BB2002BE6D0A08D9842E3D9E385CB6902
:10512000B3F5807F1AD0D36823F48073D3602268EC
:10513000536923F0010353612268536923F040034C
:105140005361202384F83E30002323632268D36810
:1051500023F01003D360A06BFEF798FEA18DE38DC2
:10516000C91A89B22046FFF7D6FEBBE7A18DE38DB1
:10517000C91A89B2E38D9BB2002BB3D00029B1D0FC
:10518000D36823F49073D3602268536923F001033A
:105190005361202384F83E30002323632268D368C0
:1051A00023F01003D3602046FFF7B5FE9AE72046B0
:1051B000FFF79EFD96E72046FFF796FE92E700BFB9
:1051C000074F0008842801D0033070470020704743
:1051D00008B500F033FD002008BD2DE9F04387B08D
:1051E00004460F464569A5B1866996B1D0F804809A
:1051F000D0F80090B0F90800FFF7E4FF22690296AA
:10520000019500903B464946404600F0A9FC0590B8
:1052100013E065682668D4F81080B4F90800FFF739
:10522000D1FF05AB019300903B461FFA88F231464F
:10523000284600F0CFFC012803D1059807B0BDE84F
:10524000F0830020FAE708B5034600B901231846A9
:1052500000F038FE002008BD00F1080343604FF065
:10526000FF328260C3600361002303607047002344
:105270000361704743684B609A688A609A6851601E
:1052800099600861036801330360704730B40D68AA
:10529000B5F1FF3F02D000F1080202E0026904E02C
:1052A0001A4653681C68AC42FAD953684B6099603F
:1052B0008A605160086103680133036030BC704745
:1052C00003694268816891608268416851605A68E8
:1052D000824206D0002202611A68013A1A601868F8
:1052E000704782685A60F5E782B0002301930D4B46
:1052F0001B68B3F1FF3F08D04FF0500383F31188D0
:10530000BFF36F8FBFF34F8FFEE74FF0500383F370
:105310001188BFF36F8FBFF34F8F019B002BFCD021
:1053200002B070470C00002008480068006880F355
:1053300008884FF0000080F3148862B661B6BFF3AE
:105340004F8FBFF36F8F00DF00BF000008ED00E05C
:10535000DFF80C00016841F4700101607047000043
:1053600088ED00E04FF0807340F8043C21F001012B
:1053700040F8081C054B40F80C3C40F8202C6FF01E
:10538000020340F8243C4438704700BFE95200084B
:10539000074B19680868B0E8F04F80F30988BFF33D
:1053A0006F8F4FF0000080F311887047AFF30080DB
:1053B000C44900204FF0500383F31188BFF36F8F6F
:1053C000BFF34F8F0A4A136801331360012B00D0DB
:1053D0007047084B1B6813F0FF0FF9D04FF05003D4
:1053E00083F31188BFF36F8FBFF34F8FFEE700BFCA
:1053F0000C00002004ED00E0094B1B6843B94FF09E
:10540000500383F31188BFF36F8FBFF34F8FFEE715
:10541000013B034A13600BB983F31188704700BF47
:105420000C00002000000000000000000000000050
:10543000EFF30980BFF36F8F154B1A681EF0100F42
:1054400008BF20ED108A20E9F04F10602DE9090017
:105450004FF0500080F31188BFF34F8FBFF36F8F71
:1054600000F056FD4FF0000080F3118809BC196868
:105470000868B0E8F04F1EF0100F08BFB0EC108ABB
:1054800080F30988BFF36F8F704700BFAFF30080D0
:10549000C449002008B54FF0500383F31188BFF3CF
:1054A0006F8FBFF34F8F00F007FC18B1034B4FF025
:1054B00080521A60002383F3118808BD04ED00E0D8
:1054C000084A0023136008490B60084B1B68084911
:1054D000A1FB03139B09013B06490B6007231360E3
:1054E000704700BF10E000E018E000E0000000207E
:1054F000D34D621014E000E03A4B1A683A4B9A42DE
:105500000DD0384B1A68394B9A4211D14FF05003E5
:1055100083F31188BFF36F8FBFF34F8FFEE74FF018
:10552000500383F31188BFF36F8FBFF34F8FFEE7F4
:1055300010B582B02E4B1A78D2B20192FF221A70A7
:105540001B78DBB28DF803309DF8033003F0500375
:10555000284A1370284B07221A6009E0264A13686C
:10556000013B13609DF803305B00DBB28DF8033024
:105570009DF8033013F0800FF0D11F4B1B68032BF5
:1055800008D04FF0500383F31188BFF36F8FBFF340
:105590004F8FFEE71B0203F4E063174A1360019B81
:1055A000DBB2134A1370154B1A6842F470021A608A
:1055B0001A6842F070421A60FFF782FF0024104B15
:1055C0001C60FFF7C5FE0F4A136843F040431360A9
:1055D000FFF7AAFE00F09CFCFFF786FE204602B013
:1055E00010BD00BF00ED00E071C20F4170C20F415D
:1055F00000E400E09C0D0020A00D002020ED00E064
:105600000C00002034EF00E0124A12F0070F1ED009
:10561000D11D21F00701C1F5705313440A460E480D
:105620000260002141601344083B23F007030B484C
:10563000036059601960991A51601360084B196032
:10564000084B1960084B4FF000421A6070474FF446
:105650007053E4E7A80D0020BC490020A40D0020F1
:10566000B0490020AC490020A849002010B4134BD9
:105670001A6882421BD359685C18844203D140687F
:1056800001445960184641684418A24213D10C4C99
:105690002468A2420DD05268114441601A68126811
:1056A0000260984200D018605DF8044B70471346C2
:1056B000DEE70460F5E70260F3E700BFBC490020C5
:1056C000A40D002070B5044600F0EEFA3C4B1B68B8
:1056D000BBB13C4B1B681C4267D1ACB1083414F021
:1056E000070F11D024F00704083404F007035BB15E
:1056F0004FF0500383F31188BFF36F8FBFF34F8FC9
:10570000FEE7FFF781FFE4E7002C50D02E4B1B682B
:10571000A3424ED32D4B1D6801E02B4615466A6807
:10572000A24202D22A68002AF7D1254A1268AA4268
:1057300041D01E6808362A681A606B681B1B102B44
:1057400010D9281910F0070F08D04FF0500383F339
:105750001188BFF36F8FBFF34F8FFEE743606C601C
:10576000FFF784FF6A6818490B689B1A0B60184999
:1057700009688B4201D216490B60124B1B68134318
:105780006B6000232B60134A13680133136000F031
:105790001FFB16F0070F10D04FF0500383F3118852
:1057A000BFF36F8FBFF34F8FFEE70026EFE70026B2
:1057B000EDE70026EBE70026E9E7304670BD00BFC5
:1057C000A40D0020A8490020AC490020BC490020BD
:1057D000B0490020B4490020002834D038B5044630
:1057E000A0F1080550F8042C174909680A4208D1AD
:1057F0004FF0500383F31188BFF36F8FBFF34F8FC8
:10580000FEE750F8080C40B14FF0500383F31188C5
:10581000BFF36F8FBFF34F8FFEE722EA010244F818
:10582000042C00F041FA54F8041C084A13680B4495
:1058300013602846FFF71AFF054A13680133136007
:1058400000F0C6FA38BD7047A8490020AC490020D6
:10585000B8490020084B1B681B683BB1064B1B680E
:10586000DB68DB685A68054B1A607047034B4FF0E2
:10587000FF321A60704700BFC8490020984A0020D4
:105880002DE9F04780469946089D099F0A9C266BA2
:1058900002F18042013A06EB820626F0070689B340
:1058A0000A4600230F2B07D8D05CE11881F834009A
:1058B000D15C09B10133F5E7002384F84330062DAC
:1058C00000D90625E56265644FF0000AC4F848A0D7
:1058D000201DFFF7CCFC04F11800FFF7C8FC246181
:1058E000C5F10705A5616462C4F84CA084F850A016
:1058F0004A4641463046FFF735FD206007B13C601F
:10590000BDE8F087002384F83430D8E738B50024A8
:1059100007E004EB840293000E481844FFF79CFC58
:105920000134062CF5D90C4D2846FFF795FC0B4C9D
:105930002046FFF791FC0A48FFF78EFC0948FFF765
:105940008BFC0948FFF788FC084B1D60084B1C6066
:1059500038BD00BFD0490020704A0020844A002092
:10596000A44A0020D04A0020BC4A0020C849002098
:10597000CC49002010B50446FFF71CFD204A1368EF
:10598000013313601F4B1B685BB11F4B1B686BB966
:105990001C4B1B68DA6AE36A9A4207D8194B1C60F1
:1059A00004E0184B1C601368012B26D0174A1368BB
:1059B00001331360E36A01229A40154908680243E3
:1059C0000A6003EB83039A00211D12481044FFF77D
:1059D00051FCFFF711FD0C4B1B686BB1094B1B68A9
:1059E000DA6AE36A9A4207D20B4B4FF080521A6090
:1059F000BFF34F8FBFF36F8F10BDFFF787FFD5E762
:105A00005C4A0020C4490020B84A0020684A0020AF
:105A10006C4A0020D049002004ED00E010B5044697
:105A200090F8513033B9006BFFF7D6FE2046FFF7F0
:105A3000D3FE10BD012B0AD0022BFAD04FF0500339
:105A400083F31188BFF36F8FBFF34F8FFEE7FFF72C
:105A5000C3FEEEE70F4B1B68D3B110B5FFF7AAFCEE
:105A60000D4BDB68DC68201DFFF72AFC0B4A13682E
:105A7000013B1360074A1368013B1360FFF7BCFC4E
:105A80002046FFF7CBFF034B1B68002BE6D110BD70
:105A9000704700BF604A0020D04A00205C4A0020C6
:105AA00008B5FFF7D7FF064B1B68012BF9D9054B4B
:105AB0004FF080521A60BFF34F8FBFF36F8FF0E744
:105AC000D049002004ED00E070B504460E461D4BA1
:105AD0001D681D4B18680430FFF7F2FB50B91A4BD4
:105AE0001B68DA6A012303FA02F218490B6823EAF9
